:020000040800F2
:10000000A0C70220B1020008258F0008834D000818
:1000100077850008D10A000845B3000800000000F9
:10002000000000000000000000000000EBA000083D
:10003000230F00080000000039920008C9A2000840
:10004000CB020008CB020008CB020008CB0200085C
:10005000CB020008CB020008250F0008CB020008E5
:10006000330F0008390F0008CB020008CB0200084C
:10007000CB020008CB020008CB020008CB0200082C
:10008000CB020008CB020008CB020008CB0200081C
:10009000CB020008CB020008CB0200083F0F00088B
:1000A000CB020008CB020008CB020008CB020008FC
:1000B000CB02000821A30008CB020008CB020008F5
:1000C000CB020008CB020008CB020008CB020008DC
:1000D000CB020008D9B20008CB020008CB0200080E
:1000E0002B0F0008CB020008CB020008CB0200084F
:1000F000CB020008CB020008CB020008CB020008AC
:10010000CB020008CB020008CB020008CB0200089B
:10011000CB020008CB020008CB020008CB0200088B
:10012000CB020008CB020008CB020008650E0008D5
:10013000CB020008CB020008CB020008CB0200086B
:10014000CB020008CB020008CB020008CB0200085B
:10015000CB020008CB020008CB020008CB0200084B
:10016000CB020008CB020008CB020008CB0200083B
:10017000CB020008CB020008CB0200080000000000
:10018000CB020008CB020008CB020008CB0200081B
:10019000CB020008CB020008CB020008CB0200080B
:1001A000CB020008CB020008CB02000800F002F8E6
:1001B00000F067F80AA090E8000C82448344AAF19A
:1001C0000107DA4501D100F05CF8AFF2090EBAE898
:1001D0000F0013F0010F18BFFB1A43F0010318477B
:1001E0003C6901005C6901000A444FF0000C10F802
:1001F000013B13F0070408BF10F8014B1D1108BFA5
:1002000010F8015B641E05D010F8016B641E01F844
:10021000016BF9D113F0080F1EBF10F8014BAD1C94
:100220000C1B09D16D1E58BF01F801CBFAD505E0B2
:1002300014F8016B01F8016B6D1EF9D59142D6D30C
:10024000704700000023002400250026103A28BF34
:1002500078C1FBD8520728BF30C148BF0B60704738
:10026000642900F0F380782900F02C81732900F0D4
:100270005B83002070471FB511F053FA1FBD10B506
:1002800010BD00F08BFB1146FFF7F5FF0FF008F9EA
:1002900000F0A9FB03B4FFF7F2FF03BC0BF047FB30
:1002A00030BF72B6704762B6704780F308887047F7
:1002B0000948804709480047FEE7FEE7FEE7FEE7FA
:1002C000FEE7FEE7FEE7FEE7FEE7FEE70448054936
:1002D000054A064B70470000CDA20008AD0100089A
:1002E000A0C10220A0C70220A0C30220A0C30220F8
:1002F000704753EA020C00F069802DE9F04B4FF093
:100300000006002B1FBFB3FA83F503FA05F424FAA5
:1003100005F65E4012BF1643B2FA82F502FA05F402
:10032000C5F120051EBF22FA05FC44EA0C04203565
:1003300056EA044C4FEA144418BF641C4FF00008FE
:100340004FF00009904271EB030C39D3002919BF1B
:10035000B1FA81F701FA07F6B0FA80F700FA07F66A
:10036000C7F120071EBF20FA07FC46EA0C0620371B
:10037000B6FBF4FCA7EB0507103F07F01F0BCBF112
:1003800020060CFA0BFB2CFA06F644BFB3460026F7
:10039000202FA4BF5E464FF0000B5BEA060C08BF9F
:1003A0004FF0010B19EB0B09ABFB027C48EB060885
:1003B000C01B06FB02CC0BFB03CC71EB0C01C1E7AD
:1003C0000B46024641464846BDE8F08B13B54FF058
:1003D00000004FF00001AFF30080BDE81C40704703
:1003E0000FB4044910B503AA029800F0A1FA10BC9A
:1003F0005DF814FB2800002070B50C460546012A64
:1004000005D02878800600D5EA69002302E00123A0
:1004100005E05B1C934202D2E05C0028F9D1A86998
:10042000E618C01AA861286A184428622846AFF363
:10043000008004E0D5E9012114F8010B9047B44293
:10044000F8D32846AFF3008070BD00002DE9F041DD
:100450000646002410687529314616A510D0AFF362
:100460000080002802DA404213A507E031688A07BD
:1004700001D512A502E0490704D511A5012401E028
:10048000AFF3008000210A2206F1240709E0B0FB47
:10049000F2FCB0FBF2F302FB1C003030785418463B
:1004A000491C0028F3D123462A463046BDE8F041D6
:1004B00000F0CFB9000000002D0000002B0000006C
:1004C0002000000070B504460D4621461068AFF3C9
:1004D00000802188090502D50F4A7A4402E00E4ABD
:1004E0007A440E32002104F1240305E000F00F06E7
:1004F0000009965D5E54491C0028F7D1207800233E
:10050000000704D5702D02D009B102231132204614
:10051000BDE8704000F09DB9526501002DE9F04141
:100520000F460546002028622846E968884770B3D0
:10053000252805D0D5E901219047286A401CF2E71B
:10054000E9682846002688476C2804460AD0682CAB
:1005500008D04C2C35D06A2C31D0742C31D07A2C68
:100560002FD016E0E968064628468847B042044680
:1005700008D16C2E23D04FF480662846E96888475E
:10058000044606E06C2E03D04FF4807601E01EE0B6
:100590004026E4B1A4F14100192802D8203446F4E1
:1005A00000663A46214628462E60FFF759FE60B1A4
:1005B000012808D0FF1D27F007070837B4E7802679
:1005C000DBE70026D9E73F1DAEE72046B2E7286A01
:1005D000BDE8F08140EA0103024630B59B0710D127
:1005E0004FF0013400E008C208C91D1B9D4315EA05
:1005F000C41FF8D013F0FF0102F8011B0DD01B0A35
:10060000F8E711F8013B002B02F8013B05D011F887
:10061000013B002B02F8013BF3D130BD421E12F822
:10062000013F002BFBD111F8013B002B02F8013BED
:10063000F9D17047032A40F2308010F0030C00F02B
:10064000158011F8013BBCF1020F624498BF11F80C
:1006500001CB00F8013B38BF11F8013BA2F10402C5
:1006600098BF00F801CB38BF00F8013B11F003033D
:1006700000F02580083AC0F0088051F8043B083AA1
:1006800051F804CBA0E80810F5E7121D5CBF51F843
:10069000043B40F8043BAFF30080D20724BF11F8BD
:1006A000013B11F801CB48BF11F8012B24BF00F822
:1006B000013B00F801CB48BF00F8012B704710B593
:1006C000203AC0F00B80B1E81850203AA0E818504A
:1006D000B1E81850A0E81850BFF4F5AF5FEA027C0B
:1006E00024BFB1E81850A0E8185044BF18C918C07A
:1006F000BDE810405FEA827C24BF51F8043B40F81B
:10070000043B08BF7047D20728BF31F8023B48BFFF
:1007100011F8012B28BF20F8023B48BF00F8012B3D
:1007200070474FF000020429C0F0128010F0030C53
:1007300000F01B80CCF1040CBCF1020F18BF00F8D4
:10074000012BA8BF20F8022BA1EB0C0100F00DB883
:100750005FEAC17C24BF00F8012B00F8012B48BFE1
:1007600000F8012B70474FF0000200B51346944685
:100770009646203922BFA0E80C50A0E80C50B1F1F9
:100780002001BFF4F7AF090728BFA0E80C5048BF0D
:100790000CC05DF804EB890028BF40F8042B08BFAB
:1007A000704748BF20F8022B11F0804F18BF00F8A7
:1007B000012B70474FF0013C50F8042B51F8043BDB
:1007C0009A4221D1A2EB0C03934313EACC1317D125
:1007D00050F8042B51F8043B9A4215D1A2EB0C03BC
:1007E000934313EACC130BD150F8042B51F8043B7C
:1007F0009A4209D1A2EB0C03934313EACC13DBD04A
:100800004FF00000704700BFD01A01BAB1FA81F171
:1008100001F0180122FA01F0CB40C1F12001DBB256
:10082000C0B2C01A2CFA01F3D11A914311EAC311D4
:10083000E6D17047704770477047704710B500F0B9
:1008400089F8006810BD10B5044600F083F8046014
:1008500010BD2DE9F0470D4699469246044600F139
:1008600024080168880604D5E06921F010012160A0
:1008700000E00120A84201DD471B00E00027A1693C
:100880007A1902EB0900081AA0612078C00602D488
:100890002046AFF30080002608E0D4E901211AF8D1
:1008A00006009047206A401C761C20624E45F4DB0F
:1008B0002078C0060AD52046AFF3008006E0D4E9D0
:1008C000012130209047206A401C2062381EA7F189
:1008D0000107F4DC07E0D4E9012118F8050090478E
:1008E000206A401C2062281EA5F10105F3DC204689
:1008F000AFF300802078000602D50220BDE8F08723
:100900000120FBE710B5436913B1AFF3008001E0AC
:10091000FFF772FD012010BD127800F124010A706A
:1009200000224A700122EDE711684FF0FF32E9E73B
:10093000074B70B50D467B4400F015F80446284679
:1009400000F024F810B14FF0FF3070BD204670BDAC
:10095000F7D400000048704740C1022001694A1CDA
:1009600002610878704700B58FB0CDE901310021F0
:10097000059105497944CDE9031011466846FFF712
:10098000CDFD0FB000BD0000E5FFFFFF007B00F0D4
:10099000800070470048704740C102207546FFF74D
:1009A000F9FFAE4605006946534620F0070085462C
:1009B00018B020B5FFF78AFCBDE820404FF00006D4
:1009C0004FF000074FF000084FF0000B21F0070137
:1009D000AC46ACE8C009ACE8C009ACE8C009ACE87A
:1009E000C0098D46704710B50446AFF3008020461D
:1009F000BDE81040FFF74EBC04F0E4B92DE9F0412A
:100A00000D460146002004464E1908E00702301B3F
:100A1000401E80B200F007F8641C3844E4B2AC42D7
:100A2000F4D3BDE8F08110B5044604F073FA200A4F
:100A3000A02101EB4000C0B204F03CFA04F0AAFA95
:100A4000E0B204F037FA04F0A5FA04F063FAA1204A
:100A500004F030FA04F09EFA002004F0F7F904469E
:100A600004F078FA204610BD2DE9F04116460D46F7
:100A70000746002409E0E00025FA00F0C1B2381969
:100A800080B200F006F8641CE4B2B442F3D3BDE8CF
:100A9000F08170B50D46044604F03CFA200AA0210E
:100AA00001EB4000C0B204F005FA04F073FAE0B2C2
:100AB00004F000FA04F06EFA284604F0FBF904F0A2
:100AC00069FA04F047FABDE870400A200BF074BDE3
:100AD000FEE7000070B50E4C0025C4F898520D4892
:100AE000016821F0C0010160016841F0400101602E
:100AF0000948C0F88C52022004F526740BF06AFDF8
:100B00000120206002200BF065FD256070BD000013
:100B1000008043420020024000004442154810B5C6
:100B2000016886B041F080010160016801F0800138
:100B30000591016841F4807101600068012400F4AE
:100B4000807005904020CDE900040320CDE90240EB
:100B50006946094801F020FF0820009069460748CF
:100B600001F01AFF0648C0F88C420648C0F89842C7
:100B700006B010BD30380240001C02400020024088
:100B8000000044420080434270B50E4C0026C4F879
:100B900098620D48016821F0C0010160016841F0D0
:100BA0004001016009480125C0F88C52022004F57B
:100BB00026740BF00FFD256002200BF00BFD266064
:100BC00070BD00000080434200200240000044420B
:100BD0002DE9F047824619480024016821F0C00140
:100BE0000160016801601E200BF0F4FC0025144E2A
:100BF000DFF850902F464FF00108C6F89872022097
:100C00000BF0E8FCC6F898826006040ED9F80C02D6
:100C100008B1641CE4B202200BF0DCFC6D1CEDB2E8
:100C2000082DEAD3BAF1000F04D0FFF753FF204696
:100C3000BDE8F087FFF7A8FFF9E7000000200240B9
:100C400000804342000044422DE9F0470546154824
:100C5000016821F0C0010160016841F040010160BC
:100C6000114E0027C6F89872DFF840803C464FF0DE
:100C70000109E909C8F88C126806050E02200BF07C
:100C8000A9FCC6F8989202200BF0A4FCC6F8987252
:100C900002200BF09FFC641CE4B2082CE9D3BDE8F1
:100CA000F0870000002002400080434200004442E0
:100CB00070B50F48016821F0C0010160016841F082
:100CC000400101600B4E0120C6F88C020A4DC5F8A8
:100CD00098021E2005F5267506F523760BF07AFCA2
:100CE0000024346002200BF075FC2C6070BD000005
:100CF00000200240000044420080434270B50F488B
:100D0000016821F0C0010160016841F0400101600B
:100D10000B4E0020C6F898020A4DC5F88C021E2022
:100D200005F5237506F526760BF054FC0124346096
:100D300002200BF04FFC2C6070BD00000020024030
:100D4000008043420000444270B51148002401680D
:100D500021F0C0010160016801600E4D0120C5F85D
:100D60008C020D4EC6F8980207E0641CE4B2FA2C1F
:100D700003D9FFF7C3FF012070BD02200BF02AFC4E
:100D8000D5F80C020028F0D1C6F8980270BD00001A
:100D90000020024000004442008043423EB51C490E
:100DA0000120C1F88402182400251AA08DE8310022
:100DB0002346F0224FF4EB719B2009F0EBF919A0C8
:100DC0008DE831001823F02240F2EF119B2009F04A
:100DD000E1F918A08DE831001823F0224FF40271D8
:100DE0009B2009F0D7F917A08DE831001823F022D5
:100DF00040F221219B2009F0CDF916A08DE83100A9
:100E00001823F02240F23A219B2009F0C3F93EBD9D
:100E100000804042B4B0C1B1D7B4CCACA3BAB9D809
:100E2000B1D50000B5E7B5C6D7B4CCACA3BAB9D834
:100E3000B1D50000C3BAC6F8B0B2C8ABA3BAB0B25D
:100E4000C8AB0000C3C5B4C5D7B4CCACA3BAB9D83D
:100E5000B1D50000C9E8B7C0D7B4CCACA3BAC9E8D3
:100E6000B7C0000030B419481A4D1A4A0068184B30
:100E7000184C603DB83A984202D91549543903E0FC
:100E8000A04203D912495839096804E0A84201D99F
:100E9000516800E0116811F0006F15D04FF000614B
:100EA000984202D90A484C3803E0A04203D90848C6
:100EB0005038016004E0A84201D9D16000E091609F
:100EC0000548006830BC004730BC7047141800204B
:100ED00058640240B86002401C01002001681823D9
:100EE000CAB2103AB2FBF3F2054B6FF30901032AC1
:100EF0009B5C436500D9091D0165084670470000E9
:100F00003C17010810B5046863608368402B0368D0
:100F100003D099600068C26010BD9A600068C1602B
:100F200010BD7047012001F02BBD4FF4005001F0BF
:100F300027BD042001F024BD082001F021BD802040
:100F400001F01EBD70B5344886B0016841F0010162
:100F50000160016801F001010591016841F004019F
:100F60000160016801F004010591016841F0800110
:100F700001600068294D00F0800005908020CDE9D7
:100F8000000501240320CDE90240254E6946304684
:100F900001F002FD00220221172002F03DF8172087
:100FA00002F02EF802200094CDE9015069461D4858
:100FB00001F0F2FC600300901B48CDE90104694692
:100FC0001A4801F0E9FC0C2000906946304601F017
:100FD000E3FC00220221062002F01EF8062002F0A7
:100FE0000FF801220221082002F016F8082002F072
:100FF00007F802221146092002F00EF8092001F03C
:10100000FFFF03220221282002F006F8282001F029
:10101000F7FF06B070BD000030380240000011102C
:10102000001C0240000002400000211000080240A5
:10103000102A0FD0C26AD1E9002342EA03220B89A9
:10104000097B4FEA034343EA016142EA010203D10B
:10105000C26002E0C268EEE7C2624FF00000704773
:10106000102A0FD0826AD1E9002342EA03220B89B9
:10107000097B4FEA034343EA016142EA010203D1DB
:10108000826002E08268EEE782624FF00000704703
:1010900030B50A68102A1AD0026A104B02EA03021D
:1010A000D1E9013443EA0403D1E9034544EA0504E4
:1010B00043EA04034C69896943EA442343EA413122
:1010C00041EA020141F0080103D1016002E0026837
:1010D000E3E701624FF0000030BD00008101F0FF46
:1010E00070B5B3F5804F05D06FF0704140F8221015
:1010F000002070BD50F82230084C2340D1E9004553
:1011000044EA05148D688E892D0245EA06458969F1
:101110002C430C431C4340F82240E9E70000F0CF89
:10112000F0B50C6850F82450194A1540D1E9012354
:10113000D1E903671A433E4332434E6932438E6915
:101140003243CE6932430E6A32434E6A32438E6A6C
:101150003243CE6A3243CE6B32430E6B32434E6B18
:1011600032432A43082B01D142F0400240F82420A8
:101170004A6BB2F5801F08D10A6832B14FF4807211
:101180000A6104490268114301600020F0BD0000BB
:101190008000E0FF00011000F0B500EB8202536810
:1011A0008E8903F04044D1E9003543EA05138D6888
:1011B0002D0245EA06452B430E8A0D4D05EB0656DA
:1011C00033430E7D6F0107EB066633438E6933436D
:1011D000234353600268D20207D54268098A22F489
:1011E000700205EB0151114341600020F0BD000089
:1011F0000000F0FF30B5D1E901231A43D1E90334EF
:1012000023431A434B690D681A438B691A43D1E98A
:101210000734012D496A05686FF30E0505D01A439E
:1012200022430A432A43026008E0234329430B4335
:10123000416803606FF30E010A434260002030BD35
:10124000426942EA4101416100207047F8B5144605
:101250000546D1E9000210438A686FF01F03C96890
:1012600003EB421242EA412108430090286101F059
:101270008BFC064609E0601C07D024B101F084FC19
:10128000801BA04201D90320F8BDA8698006F2D4D2
:101290000020F8BDF0B56FF00F05D1E9003405EB83
:1012A00004145B1E2E0123438C682F0306EB0424D9
:1012B0004FEA054C23430D8A8E8ACC68097E4FF095
:1012C0007F4E07EB05450CEB06560EEB0161012A3C
:1012D0000CD082683F1107EB043423432B43334384
:1012E00002F070420B43134383600FE0C2682B434C
:1012F0000B4302F070428168134301F070422103F6
:10130000A1F5805131431143C36081600020F0BDDD
:1013100070B54A4888B00024016841F0800101603E
:10132000016801F080010791016841F4807101605A
:10133000006802A900F4807007908020012581E8F0
:101340003100032005903E4801F026FB2802CDE93C
:10135000020502A93B4801F01FFBFFF7DFFB3A4EF5
:10136000C6F8A042142006F528760BF025F9356062
:1013700032200BF021F98DF8004002226946A120AD
:1013800000F072F89DF80000302803D19DF801109C
:10139000032931D09DF8011001292DD002292BD02D
:1013A0000422694648F2401000F030FE8DF80440F7
:1013B000694626A0FFF714F82748009948F240052F
:1013C000C0F8021002208DF800000122694628466C
:1013D00000F070FF01226946E81D00F017FE0A20A8
:1013E0000BF0EAF88DF8004001226946284600F02B
:1013F00061FF08B0002070BDC9B201EB002117A049
:10140000FEF7EEFF01226946002000F085F9012277
:101410006946A42000F080F916208DF80000012212
:101420006946802000F078F90C208DF80000012238
:101430006946882000F070F9DBE700003038024090
:10144000001C02400020024000004442435450204F
:1014500049443A25730D0A004400002043545020AB
:1014600049443A25780D0A002DE9F04115460F460A
:101470000446FFF71DFC7020FFF7E6FBFFF764FC56
:10148000E0B2FFF7E1FBFFF75FFCFFF711FC712013
:10149000FFF7DAFBFFF758FC00246E1E09E0B442A8
:1014A00001D0012000E00020FFF792FB3855641CBA
:1014B000E4B2AC42F3D3BDE8F041FFF71FBC00003B
:1014C0002DE9F14783B000278E4E8DF804704FF060
:1014D0000A0A70788C4C401CC0B2B0FBFAF20AFBCE
:1014E0001201B846707009B10A286FD2854887A1E9
:1014F000801CFFF75FF94FF0010203A908B3022037
:10150000FFF7B2FF9DF80C0001075FD000F00F015C
:10151000307881425AD8FF228A40D1B2C943B4F808
:10152000349041F0C001A18604EB4000A1894181C3
:10153000218CC18303200BF03FF88DF80470744DAB
:1015400090E048F24E15284600F060FD9DF80C0032
:101550000106D7D5317800F00F008842D2D88DF837
:101560000470012201A9284600F0A4FECAE7A18E5A
:1015700001228240114270D0624864A1801CFFF7B2
:1015800019F920B363489DF80410042230F81100C3
:101590006946FFF769FF94F844009DF80010C00702
:1015A0009DF8010001F00F0145D000EB01219DF8ED
:1015B000040004EB400001849DF802209DF8031014
:1015C00002F00F0201EB0221818146E065E0514803
:1015D0009DF804100A30042230F81100694600F02A
:1015E00015FD94F844009DF80310C0079DF8020013
:1015F00011D000EB01206988091A9DF8040004EB62
:10160000400001849DF800109DF8012001EB0221AB
:101610002A88511AD8E700EB01219DF8040004EB59
:10162000400081819DF800109DF8012001EB02210E
:101630006A88511A10E000EB01202988091A9DF8E8
:10164000040004EB400081819DF802209DF8031006
:1016500002F00F0201EB022101849DF80400401CFE
:101660008DF804009DF8040031788842FFF47FAFC4
:10167000A08929884FF00108884203D8208C698806
:10168000884209D99DF80C0000F00F00012812D9FA
:10169000E089A081608C208477701A481BA1801C8F
:1016A000FFF788F800289DF80C004FF6FF710FD067
:1016B000C00623D019E0307804EB40004189A181B5
:1016C000C08B208480208DF80C00A4F83490E4E7CF
:1016D00000F08F00802811D007E020F0800003E0A8
:1016E000A181218400F0E000A0867078F02801D963
:1016F00086F801A004B04046BDE8F087A08E02063F
:10170000EED5EAE7440000205400002039313100D2
:10171000BC020020845E01082DE9F04115460E460A
:1017200004460027FFF7C4FA7020FFF78DFAFFF791
:101730000BFBE0B2FFF788FAFFF706FB002408E096
:10174000305DFFF781FAFFF7FFFA070003D1641C51
:10175000E4B2AC42F4D3FFF7D1FA3846BDE8F081E9
:1017600038B50446094D4FF0AA300090A8790423FB
:1017700060436A46002107F0C5FBA8790423604353
:101780006A460021401C07F0BDFB38BD1017002041
:101790002DE9FC47254F89460646002500240DF11A
:1017A000040810E0CDF80080798870438B084A4621
:1017B000002107F03FFA7888BDF80410B1EB900FD4
:1017C00004D1641CA4B2B879A042EBD8B879A04285
:1017D00002D10020BDE8FC87304607F04DF820B16B
:1017E000294613A0FEF7FCFD16E0B9F1FF3F13D028
:1017F00000200AE07A8806FB0010930800221146B8
:1018000007F056FBBDF80400401CADF80400B879A1
:10181000BDF804108842EDD86D1CADB2032DBDD3C8
:10182000314609A0FEF7DCFD0120D3E710170020A8
:101830006572726F7220657261736520626C6F638E
:101840006B3A25640D0A000062616420626C6F636C
:101850006B20636865636B65643A25640D0A00005C
:1018600038B50446104D00208DF80000A8790123FA
:1018700060436A46002107F011FA9DF80000FF2836
:1018800001D0022038BDA879012360436A460021B7
:10189000401C07F003FA9DF80000FF2801D001204A
:1018A00038BD002038BD0000101700202DE9F84F8A
:1018B00091462F4A8A461D469179B0FBF1F3B0FB61
:1018C000F1F801FB130B404600F0B8F82849074631
:1018D0004889B84202D20120BDE8F88F002428E0F0
:1018E0005C4516D3ADB14A88A2EB0A01A94201D2E8
:1018F0008EB200E0AEB207FB004108FB00404B4651
:101900005246009606F038FE4FF0000AB144AD1B77
:1019100005E007FB004108FB004006F001FF30B185
:101920003846FFF71DFF012000F024F8CBE7641CC8
:10193000A4B20F498879A042D2D80D46A879A04216
:1019400014D1384600F028FA404606F095FF0020F2
:101950006A89696908E031F81040444502D121F8EC
:10196000107003E0401C80B28242F4D80020B3E73C
:1019700010170020F8B506460021294D4FF6FF70DC
:1019800003E06A6922F81100491C6A898A42F8D882
:101990000020A88104461CE0A879042360436A461D
:1019A000002107F07BF99DF80000FF280CD1B6B1AB
:1019B000A879012360436A460021401C07F06EF9B4
:1019C0009DF80000FF280AD0214616A0FEF708FD6A
:1019D000641C6989A142DFD800206A6916E09DF87D
:1019E00002009DF8031000EB01206989814202D9B1
:1019F000696921F81040A889401CA881E8E732F8FD
:101A000010308B4201D3E88102E0401C8142F6D8BD
:101A1000E889642801D20220F8BD0020F8BD00004A
:101A20001017002062616420626C6F636B20696E26
:101A30006465783A25640D0A0000000070B5104E08
:101A4000104C71892268491E914200D2216000F039
:101A500001052946206800F017F8411C0AD1708959
:101A60002168401E884207D92946206000F00CF802
:101A7000411C01D0206070BD4FF0FF3070BD0000F0
:101A80001017002040000020F8B50D460021401C32
:101A90000091040012D00C4F012626EA0400A8424F
:101AA0000AD1B879611E484304236A46002107F031
:101AB000F5F80098401C04D0641EEED14FF0FF30C2
:101AC000F8BD601EF8BD000010170020F8B5254EC7
:101AD00000273C46B78113E02046FFF7C1FE70B9EE
:101AE000204606F0C9FE38B121461FA0FEF778FC5B
:101AF0002046FFF735FE02E0B089401CB081641C2F
:101B00007089A042E8D8B1891BA0FEF769FCB089B2
:101B1000642801D20120F8BDC0EB4010642100EB25
:101B20004000B0FBF1F50024009710E02046FFF7DD
:101B300097FE58B9B079022360436A46194607F008
:101B4000E1F90098401C0090A84203D0641C708901
:101B5000A042EBD80120FFF70DFF0028DBD00220C8
:101B6000F8BD00001017002042616420626C6F63B2
:101B70006B3A25640D0A0000676F6F645F626C6FDB
:101B8000636B6E756D3A25640D0A000010B506F0A2
:101B90009FFE00BB184C616911B100200EF0CEFA17
:101BA0006089410000200EF0D5FA6061618949002A
:101BB000FEF7B7FD606970B10120FFF7DBFE60B191
:101BC0000EA0FEF70DFCFFF781FF90B111A0FEF70C
:101BD00007FC022010BD012010BD618912A0FEF794
:101BE000FFFBA18916A0FEF7FBFBE18919A0FEF718
:101BF000F7FB002010BD000010170020666F726D0B
:101C00006174206E616E6420666C6173682E2E2E86
:101C10000D0A0000666F726D6174206661696C6503
:101C200064210D0A00000000746F74616C20626C06
:101C30006F636B206E756D3A25640D0A000000001D
:101C4000676F6F6420626C6F636B206E756D3A25F1
:101C5000640D0A0076616C696420626C6F636B20AE
:101C60006E756D3A25640D0A000000000549CA89A9
:101C7000824202D24FF6FF707047496931F8100076
:101C800070470000101700202DE9FF5F9B461546A6
:101C90008246002679E03F4C6088B0FBF5F1A079E0
:101CA000414301988319B3FBF1F0FFF7DFFF61892E
:101CB000814203D8012004B0BDE8F09F354C618813
:101CC000A479B1FBF5F26243B3FBF2F702FB1732E2
:101CD0006A43B2FBF1F300FB0437B2FBF1F001FB06
:101CE0001028A1EB0800B0FBF5F084B2ABEB0600C6
:101CF000A04200D284B204FB05F91FFA89F31FFA4F
:101D000088F15246384606F077FE032809D11FFABB
:101D100089F31FFA88F15246384606F06DFE032813
:101D200004D004282ED068B30220C4E74B461FFA23
:101D300088F152463846FFF7B9FDDFF858804FF07A
:101D4000FF3198F80600B7FBF0F0FFF721FD80B9EE
:101D500098F806000021B7FBF0F0FFF719FD814667
:101D600098F80600B7FBF0F006F086FDB9F1000F19
:101D700008D098F80600B7FBF0F0FFF7F1FC01205F
:101D8000FFF7F8FD05FB04AA26445E4583D3002037
:101D900091E700001017002008B5CC218DF8001045
:101DA000044901236A4689794843194607F0AAF88D
:101DB00008BD0000101700202DE9FF4F85B0154623
:101DC00000274FF0FF3B7BE0404C6088A179B0FBDF
:101DD000F5F048430699CB19B3FBF0F0FFF746FF47
:101DE00061898046414503D8012009B0BDE8F08FE4
:101DF000364A50889279B0FBF5F15143B3FBF1F4C8
:101E000001FB143101FB05FABAFBF0F308FB0231C8
:101E1000BAFBF0F200FB12A9A0EB090080B2B0FB04
:101E2000F5F002910899ADF80400C91B8CB203913A
:101E3000844200D3044601A804FB05F600901FFA73
:101E400089F1C6F38F034FF0FF32029806F0F2FEDD
:101E500008B10220C9E7BDF80400B0EB960F0FD11E
:101E6000B3B21FFA89F1059A029806F075FF38B9E6
:101E70004146C34520D00846FFF78EFFC346D8B180
:101E80001248817940884143A1EB0A00B0FBF5F08C
:101E9000039980B28CB2ADF80400844200D30446AA
:101EA00004FB05F61FFA89F13346059A0298FFF7FD
:101EB000FDFC08B1032098E70598274430440590BD
:101EC0000898874280D300208FE700001017002079
:101ED0002DE9F0433E4889B00024016841F08001BB
:101EE0000160016801F080010791016841F480718F
:101EF00001600068802600F48070079001AA012527
:101F000003270096DFF8CC9082E8B0006946484687
:101F100000F042FD2802CDE9000569462E4800F098
:101F20003BFDFEF7FBFDDFF8B480C8F8A0420A20B5
:101F30000AF042FBC8F8A0520A200AF03DFBCDE9A6
:101F40000064CDE902476946484600F025FD64205B
:101F50000AF032FB042205A948F2401000F056F8BE
:101F60008DF8184005A91EA0FEF73AFA1FA105A892
:101F7000FEF720FC40BB02208DF8140048F240051B
:101F8000012205A9284600F095F9012205A9E81DBE
:101F900000F03CF89DF8141060290BD215A0FEF754
:101FA0001FFA19488088A0F5AA41103902D10120F2
:101FB00000F05AF90A200AF0FFFA8DF814400122C5
:101FC00005A9284600F076F909B00020BDE8F083A5
:101FD00030380240001C0240002002400000444211
:101FE0004354502049443A25730D0A00393134379F
:101FF0000000000044656661756C74205665723A95
:1020000025640D0A00000000BC0200202DE9F0410B
:1020100015460F460446FEF74BFE2820FEF714FE39
:10202000FEF792FE200AFEF70FFEFEF78DFEE0B2ED
:10203000FEF70AFEFEF788FEFEF73AFE2920FEF7BD
:1020400003FEFEF781FE00246E1E09E0B44201D0BB
:10205000012000E00020FEF7BBFD3855641CE4B20F
:10206000AC42F3D3BDE8F041FEF748BE2DE9F14F95
:10207000794E00244FF00A0B307882B0401CC0B279
:10208000B0FBFBF20BFB1201744DA146307009B19D
:102090000A2877D248F24E17012202A93846FFF7E4
:1020A000B5FF9DF808004FF0000801060AD500F0C2
:1020B0000F00062806D28DF80480012201A93846B7
:1020C00000F0F8F89DF8080001075BD000F00F0061
:1020D000062857D2FF218140C8B28DF80400C043C2
:1020E00095F834A040F0C000A886A889A882288C62
:1020F0005B4F28854FF00109A98E09FA04F00142CF
:1021000068D058480422694630F81400FFF77EFF73
:10211000B888A0F5AA41103908D0A0F58641423907
:102120001AD0A0F5864184392DD053E095F84400AB
:10213000C0072CD09DF800009DF8011000EB012194
:1021400005EB440001849DF802109DF8032001EB8B
:102150000221C1F548713CE095F84400C00716D152
:102160009DF800009DF8011000EB012105EB4400F3
:1021700001849DF802109DF8032001EB0221C1F5B6
:10218000887126E041E095F84400C00710D09DF822
:1021900000009DF8011000EB012105EB4400818156
:1021A0009DF802109DF8032001EB0221018411E04B
:1021B0009DF800009DF8011000EB012105EB4400A3
:1021C00001849DF802109DF8032001EB0221C1F566
:1021D000F0718181641CE4B2052C8DD3A9893A8801
:1021E0004FF001092846914203D8018C7A88914228
:1021F00009D99DF8081001F00F0101290CD9C189F6
:102200008181418C298486F800809DF8080000F0C7
:102210008F0080280AD016E0818A8181018D018497
:1022200080218DF80810A5F834A0EEE7A88E0106ED
:1022300002D520F0800005E04FF6FF71A9812984C6
:1022400000F0E000A8863078F02801D986F800B0C8
:102250004846BDE8FE8F00004B00002054000020DF
:10226000BC020020505F010808B500218DF8001065
:102270008DF801000E489DF80020435C491C1A446B
:10228000C9B28DF80020B829F5D3D0B2C043401CA4
:102290008DF80000B822064948F2470000F00AF81D
:1022A0000222694648F2FF0000F004F8002008BD51
:1022B000985E01082DE9F04115460E4604460027B8
:1022C000FEF7F6FC2820FEF7BFFCFEF73DFD200AD6
:1022D000FEF7BAFCFEF738FDE0B2FEF7B5FCFEF7FC
:1022E00033FD002408E0305DFEF7AEFCFEF72CFD68
:1022F000070003D1641CE4B2AC42F4D3FEF7FEFC49
:102300003846BDE8F08100002DE9F0433F4889B030
:102310000024016841F080010160016801F0800142
:102320000791016841F4807101600068802500F424
:102330008070079001AA012603270095DFF8D0904E
:1023400082E8D0006946484600F026FB4FF48078CA
:10235000CDE900862F4E6946304600F01DFBFEF7A2
:10236000DDFB00224146304600F009FC0A200AF05D
:1023700023F901224146304600F001FC0A200AF010
:102380001BF9CDE90054CDE902476946484600F003
:1023900003FB64200AF010F9042205A948F240105A
:1023A00000F050F88DF8184005A91BA0FEF718F8AA
:1023B0001DA105A8FEF7FEF918B1012009B0BDE87E
:1023C000F08302208DF8140048F24005012205A98F
:1023D0002846FFF76FFF012205A9E81DFFF716FE4B
:1023E0009DF81410412905D211A0FDF7F9FF012035
:1023F00000F030F90A200AF0DFF88DF814400122CD
:1024000005A92846FFF756FF0020D7E730380240DD
:10241000001C0240002002404354502049443A2509
:10242000730D0A0D0A000000393237310000000038
:1024300044656661756C74205665723A25640D0AB0
:10244000000000002DE9F04115460F460446FEF756
:102450002FFC2820FEF7F8FBFEF776FC200AFEF79B
:10246000F3FBFEF771FCE0B2FEF7EEFBFEF76CFC4F
:10247000FEF71EFC2920FEF7E7FBFEF765FC0024B3
:102480006E1E09E0B44201D0012000E00020FEF7FA
:102490009FFB3855641CE4B2AC42F3D3BDE8F04175
:1024A000FEF72CBC2DE9F14783B000268DF80060C3
:1024B000644C4FF00A0A644D20783746401CC0B285
:1024C000B0FBFAF20AFB120120704FF6FF7909B156
:1024D0000A287DD248F24E18012203A94046FFF790
:1024E000B1FF9DF80C0001060AD500F00F000B2883
:1024F00006D28DF8006001226946404600F0D0F80F
:102500009DF80C00010775D000F00F000B2871D268
:1025100009FA00F1C843B5F8348040F0C000A8863D
:10252000A889E883288C68868DF8006047E0A88E2B
:102530009DF800200121914008423BD043499DF87D
:102540000000062231F8100001A9FFF77BFF95F883
:102550004400C00716D09DF806109DF8070001EB57
:1025600000209DF8001005EB410108849DF804004F
:102570009DF8051000EB01209DF8001005EB4101CE
:10258000888117E09DF806009DF8071000EB0120F8
:102590009DF80010C0F5487005EB410188819DF859
:1025A00004009DF8051000EB01209DF8001005EBDC
:1025B000410108849DF80000401C8DF800009DF842
:1025C00000000A28B3D322480127A989028800E025
:1025D00010E0914203D8298C4088814209D99DF8A6
:1025E0000C0000F00F0001280BD9E889A881688C45
:1025F000288426709DF80C0000F08F0080280AD0F7
:1026000016E0E88BA881688E288480208DF80C0065
:10261000A5F83480EEE7A88E010602D520F08000F0
:1026200005E0A5F80C90A5F8209000F46040A8867D
:102630002078F02801D984F800A004B03846BDE81D
:10264000F08700004C0000205400002014600108B6
:10265000BC02002008B500218DF800108DF80100A3
:102660000E489DF80020435C491C1A44C9B28DF8FD
:102670000020B829F5D3D0B2C043401C8DF800002B
:10268000BA22064948F2470000F00AF802226946D9
:1026900048F2FF0000F004F8002008BD5A5F01086E
:1026A0002DE9F04115460E4604460027FEF700FBD3
:1026B0002820FEF7C9FAFEF747FB200AFEF7C4FA06
:1026C000FEF742FBE0B2FEF7BFFAFEF73DFB002447
:1026D00008E0305DFEF7B8FAFEF736FB070003D1DD
:1026E000641CE4B2AC42F4D3FEF708FB3846BDE804
:1026F000F081000030B40C4601461546500700D06A
:10270000012000EBD50010FB05F0C2B208784B7831
:10271000812809D3402B07D3FF2B05D0FF2803D0F6
:102720007F2B0CD2403B0BE00023184603E05B1CE0
:1027300004F8010BDBB29342F9D330BC7047413B44
:102740008138D9B2C0B2C0EB401303EB801001EB6B
:10275000400050430C490C2D0CD0102D0DD0182DDD
:102760000ED0202DE9D1D1F821100144204630BCF3
:1027700008F054BED1F80910F7E7D1F81110F4E7CA
:10278000D1F81910F1E70000D8C0022070B5044656
:1027900090F83400049D012808D0012084F834000A
:1027A00020680668360303D4122605E0022070BDB7
:1027B0000668360302D5222684F83560066826F0BE
:1027C000010606602068066846F4802606602068D8
:1027D00003612B462046FEF795FB2068016841F017
:1027E00001010160002070BD70B5040025D094F88F
:1027F0003500022821D02068016821F00101016024
:102800002068002505602068456020688560206894
:10281000C560206805612168212048612046FEF7D7
:102820005DFB94F854203F2191408160E56484F879
:10283000355084F83450002070BD012070BD000078
:1028400070B504001AD00220636A84F8350021684C
:102850000A6818480240D4E901052843D4E9035620
:102860003543284365692843A5692843E56928431A
:10287000256A28431043042B02D005E0012070BDD7
:10288000D4E90B231A431043086022685069616A37
:1028900020F007000843042901D1A16A08435061D0
:1028A0002046FEF71BFB0020E064012084F8350081
:1028B000002070BD3F8010F031B500F065F904468E
:1028C00000F062F90099001B8842F9D338BD00007E
:1028D00070B5244A082821D00BDC012816D0042822
:1028E0001BD10421104600F045F9002815D11E49DE
:1028F0001BE080281FD04FF4005188420DD11B48A7
:1029000000F038F9002808D119490EE0BDE8704000
:102910000121184800F02EB9087070BD082110463A
:1029200000F028F90028F8D11349087808B10020F0
:10293000F2E70120F0E78021104600F01BF90128A2
:10294000EBD10E4C0020616888474FF6FF7502E01E
:10295000616800208847A089A842DED1208CA84267
:10296000F6D070BD001C02400100002000080240AB
:10297000020000200000024000000020540000205F
:10298000044910B50A68024202D00860FFF7A0FFB0
:1029900010BD0000143C01402DE9F84FDFF8A09174
:1029A000002209F1040A0AF1040B4FF00F080BF1A1
:1029B000040E01260B6896403340B34271D14C6837
:1029C000022C01D0122C11D1D40800EB84073D6AEF
:1029D0005407E40E08FA04FC25EA0C05D1F810C0EF
:1029E0000CFA04FC4CEA050CC7F820C00768540038
:1029F000032591F804C0A5400CF0030CAF430CFA7A
:102A000004FC4CEA070CC0F800C04F68012F05D049
:102A1000022F03D0112F01D0122F11D18768D1F8C6
:102A20000CC0AF430CFA04FC4CEA070CC0F808C019
:102A30004768B7430E79C6F3001696403E4346609A
:102A4000C668AE438D68A5403543C5604C68E40058
:102A50006FD53C4C256845F480452560246822F0FC
:102A6000030504F480440094374C2E19D6F80878F6
:102A70009407250F08FA05F4A743344CA04201D16E
:102A800000242EE0324CA04201D1012429E0314C37
:102A9000A04201D1022424E02F4CA04202D1032401
:102AA0001FE046E02D4CA04201D1042419E02C4C3B
:102AB000A04201D1052414E02A4CA04201D10624F1
:102AC0000FE0294CA04201D107240AE0274CA04284
:102AD00001D1082405E0264CA04201D1092400E0E0
:102AE0000A24AC403C43C6F80848D9F800404D469B
:102AF0004E689C43F60300D51C432C60DAF8004076
:102B000055464E689C43B60300D51C432C60DBF849
:102B100000405D464E689C43F60200D51C432C6085
:102B2000DEF8004075464E689C43B60200D51C4353
:102B30002C60521C102AFFF43CAFBDE8F88F000057
:102B4000003C014044380240003001400000024097
:102B50000004024000080240000C02400010024045
:102B60000014024000180240001C024000200240F5
:102B7000002402400069084000D0012070470AB1DB
:102B8000816170470904FBE7014800687047000055
:102B90001C00002002480168491C016070470000C9
:102BA0001C0000200B4810B5016841F40071016061
:102BB000016841F480610160016841F48071016045
:102BC000052000F049FA0F2000F006F800F08AF91D
:102BD000002010BD003C024010B5044600F0EAFCA5
:102BE0004FF47A71B0FBF1F001F09CFE0022214617
:102BF000501E00F011FA002010BD2DE9F0410446EE
:102C000090F8A00015460F4601281DD0012684F833
:102C1000A060022084F8A10005EB850000EBC50050
:102C200004EB800034223830FDF749FD2A4639464E
:102C3000204605F0EFFB2068466284F8A160002082
:102C400084F8A000BDE8F0810220FBE770B5040025
:102C500004D094F8A100002510B106E0012070BD59
:102C600084F8A050204600F06FF8022084F8A100FC
:102C70002068816921F070418161D4E9011001432C
:102C8000D4E9030210430143206882691143816142
:102C9000206882682B490A408260A08A020420686A
:102CA0008368A6693343134383602068C2680A407F
:102CB000C260A08B02042068C368266A33431343B2
:102CC000C360206802690A400261A08C0204206887
:102CD0000369A66A334313430361206842690A40CB
:102CE0004261A08D010420684269236B1A430A43A4
:102CF000426194F83500020294F83600010420681D
:102D0000C36A03F07F43C3622068C36A94F83460E7
:102D1000114333430B43C3622068416B41F004010C
:102D200041632068416B41F0020141632068816981
:102D300041F001018161C4F8A450012084F8A10090
:102D4000002070BD00F800F030B5364887B000258F
:102D5000016841F080610160006800F080600590CA
:102D600030481438016841F400010160016801F441
:102D700000010591016841F002010160016801F064
:102D800002010591016841F020010160016801F034
:102D900020010591016841F040010160016801F0E6
:102DA00040010591016841F080010160016801F076
:102DB00080010591016841F480710160006803247D
:102DC00000F480700590202000900120CDE90204DD
:102DD000019069461448FFF7DFFD4FF480600090D2
:102DE0000220CDE901050E20CDE9034069460F48D8
:102DF000FFF7D2FD4FF40C60009069460C48FFF7D6
:102E0000CBFD4FF47E40009069460A48FFF7C4FDB1
:102E100040F2F760009069460748FFF7BDFD07B034
:102E200030BD00004438024000040240001402405B
:102E300000180240001C02400020024070B5044609
:102E400090F8A0000E46012820D0012584F8A0505B
:102E5000022084F8A10003EB830000EBC30004EB25
:102E6000800141F8386F886A3044C1E90102C86ABC
:102E70001044C8601A46204605F0CCFA2068456226
:102E800084F8A150002084F8A00070BD022070BD1D
:102E90002DE9F041044690F8A0000F4601281FD00C
:102EA000012584F8A050022084F8A10003EB8300E0
:102EB00000EBC30004EB80010026E1E90E67204629
:102EC000C1E90262C1E90A721A4605F0A3FA206854
:102ED000456284F8A15084F8A0600020BDE8F0812C
:102EE0000220FBE708B50020009008BD70B515462C
:102EF0000E46040003D094F8210010B107E0012031
:102F000070BD002084F82000204600F021F8211D2B
:102F10002068FEF7BDF8D4E900023146FEF7A0F8BC
:102F2000D4E900022946FEF783F86068102820687B
:102F300008D0016A41F004010162012084F82100F7
:102F4000002070BD016841F004010160F5E7000058
:102F500070B5274886B00024016841F00101016086
:102F6000006800F00100059021480838016841F030
:102F700008010160016801F008010591016841F054
:102F800010010160016801F010010591016841F034
:102F9000400101600068032500F0400005904020DA
:102FA000CDE900040120CDE90205124E6946304604
:102FB000FFF7F2FC7015009001A9022081E83100B2
:102FC0000C20049069460C48FFF7E6FC4DF63300F0
:102FD0000090694602943046FFF7DEFC4FF4F06043
:102FE000009069460548FFF7D7FC06B070BD0000A9
:102FF00038380240000C0240001802400010024025
:1030000000F01F02012191404009800000F1E02002
:10301000C0F8001170470000F0B40E4B1B68C3F3FA
:103020000223C3F10704042C00D904241D1D072D1D
:1030300001D2002300E0DB1E012606FA04F56D1E16
:103040000D409D409E40761E164045EA0601F0BCAC
:1030500005F069BF0CED00E0064A00F007011068BA
:103060004FF6FF03184040EA01200349084310606F
:10307000704700000CED00E00000FA052DE9F84370
:103080001D48016841F0805101600068012700F08F
:1030900080500090380490FAA0F0DFF86080B0FA19
:1030A00080F048F82070FFF76FFD04464FF47A7502
:1030B000134E04E0FFF768FD001BA84213D87068A8
:1030C000C003F7D54FF4003090FAA0F0B0FA80F0CA
:1030D00048F82070FFF758FD044607E0FFF754FD5D
:1030E000001BA84202D90320BDE8F8837068800362
:1030F000F4D50020F8E700004038024000000E42FE
:10310000007000402DE9F84F04460068DFF878822F
:103110009E4DC10747F6C07A4FF0E0464FF0010BD5
:103120004FF0000901D180074BD59949C1F868904B
:10313000FFF72AFD074604E0FFF726FDC01B6428C1
:103140007ED828680001F7D420789249C0070DD0B6
:103150009AFAAAF26068B2FA82F2904096FAA6F35E
:10316000A268B3FA83F39A4010430860207880077E
:1031700018D5086896FAA6F200F0E040B2FA82F29A
:10318000D0406268237B920142EA036242EA007007
:103190000860D8F80010E26921F01F01521E1143A7
:1031A000C8F800107A49C1F868B0FFF7EDFC07468F
:1031B00004E0FFF7E9FCC01B642841D8286800013F
:1031C000F7D52068410701D4000776D57049C1F8CA
:1031D0007090FFF7D9FC074604E0FFF7D5FCC01B51
:1031E00064282DD82868C0438000F6D520786A4F1F
:1031F00040074FF0706C29D5386896FAA6F100F0B8
:10320000E040B1FA81F1C8409AFAAAF22169B2FA13
:1032100082F291409CFAACF36269B3FA83F39A406C
:10322000114396FAA6F2B2FA82F290400143396055
:10323000D8F800106FF0FF0321F4F851226A00E083
:1032400079E003EB02221143C8F800102078000750
:1032500023D538689CFAACF100F07060B1FA81F1C6
:10326000C8409AFAAAF22169B2FA82F291409CFA15
:10327000ACF2B2FA82F29040014396FAA6F2A0694B
:10328000B2FA82F2904001433960D8F80010626AC5
:1032900021F440311143C8F800103D49C1F870B025
:1032A000FFF772FC064604E0FFF76EFC801B642803
:1032B00041D82868C0438000F6D42078800651D5D4
:1032C00032484F464030016841F08051016000684B
:1032D000324E00F080500090306840F480703060D2
:1032E000FFF752FC054604E0FFF74EFC401B642844
:1032F00021D83068C005F7D5264E143E3068218DA0
:1033000000F4407001F4407188422BD030682449A9
:1033100020F44070C1F800B00F603060800710D515
:10332000FFF732FC054641F2883707E0FFF72CFC37
:10333000401BB84202D90320BDE8F88F30688007EF
:10334000F4D5A06A1149C0F301220831032A13D031
:10335000086820F4F81008603068218DC1F30B0173
:10336000084330602078C00604D50E4994F82C003C
:10337000C1F8E0010020DFE70A680B4B22F4F812E5
:10338000184002430A60E7E78C38024000380240E8
:1033900000004742843802408838024000700040F4
:1033A000400E474200104742FFFCFF0F2DE9F05F3F
:1033B000DFF8F8A104460F46DAF80000DFF8F081E4
:1033C00000F00F02C8B27A49814641F2883608F10E
:1033D0000808BA4261D202468AF80020DAF80000F2
:1033E00000F00F00B8427DD12078800707D5D8F8CB
:1033F0000020A36822F0F0021A43C8F800202078C9
:10340000C0072DD0606801281AD002281BD00328DD
:1034100019D009688907002964DAD8F800104746EE
:1034200021F003010143C8F80010FFF7ADFB05468A
:10343000606801280FD0022818D003281CD027E08C
:1034400009688903E7E709688901E4E7FFF79CFB5E
:10345000401BB04258D83868C0F381000128F5D12C
:1034600088E0FFF791FB401BB0424DD83868C0F3AD
:1034700081000228F5D17DE03868FFF785FB401B0D
:10348000B042F9D940E0FFF77FFB401BB0423BD888
:10349000386810F00C0FF6D16CE02078800707D563
:1034A000D8F80020A36822F0F0021A43C8F80020E0
:1034B0002078C0074CD06068012828D0022829D085
:1034C000032827D009688907002949DAD8F800209D
:1034D00022F003020243C8F80020FFF755FB05461F
:1034E000606800E03CE001281DD0022829D00328B4
:1034F00038D0B3464646306810F00C0F28D0FFF79E
:1035000043FB411B5945F6D90320BDE8F09F0968EC
:103510008903D9E709688901D6E7FFF735FB411B25
:10352000594502D9F0E7B34646463068C0F38100FA
:103530000128F2D10CE0FFF727FB411B594502D9C6
:10354000E2E7B34646463068C0F381000228F2D174
:103550008AF80090DAF8000000F00F00B84209D0B5
:103560000120D2E744462068FFF70EFB401BB04223
:10357000F9D9C9E72078400707D5D8F80010E268E4
:1035800021F4E0511143C8F800102078000708D555
:10359000D8F80010226921F4604141EAC201C8F85C
:1035A00000100F20FFF718FB0020AEE7003C0240A0
:1035B0000038024010B500F043F808490968F022CD
:1035C00092FAA2F201F0F001B2FA82F2D140044A7A
:1035D000515CC8400349086010BD00000838024033
:1035E0002C1701080800002010B5FFF7E3FF07497A
:1035F00009684FF4E05292FAA2F201F4E051B2FAF3
:1036000082F2D140024A515CC84010BD08380240E5
:103610002C17010810B5FFF7CDFF074909684FF4D3
:10362000604292FAA2F201F46041B2FA82F2D14011
:10363000024A515CC84010BD083802402C170108EE
:1036400030B51948006810F00C01184812D0184C19
:1036500004290ED008290DD1134A121F11681368CE
:1036600001F03F015D0247F6C07304D5B4FBF1F0F1
:1036700003E0204630BDB0FBF1F01168194093FA29
:10368000A3F3B3FA83F3D940484311684FF44032AF
:1036900092FAA2F201F44031B2FA82F2D140491C0E
:1036A0004900B0FBF1F030BD083802400024F400BE
:1036B00040787D012DE9F84F04460078DFF8FCA240
:1036C000BF4DC0074FF0000648D0DAF80010504652
:1036D000C1F38101012908D00068C0F381000228EC
:1036E0000AD1281D0068400206D52868800335D518
:1036F0006068002873D031E0DFF8C49209F1020954
:1037000089F80060FFF740FA074641F2883804E084
:10371000FFF73AFAC11B41457AD828688003F7D4ED
:10372000207989F80000606860B1FFF72DFA07463C
:1037300004E0FFF729FAC11B4145EDD82868800352
:10374000F7D50BE0FFF720FA074604E0FFF71CFA75
:10375000C11B4145E0D828688003F7D42078DFF802
:103760006492800744D5DAF80010504611F00C0F2F
:103770004FF0F80809D00068C0F3810002280BD18F
:103780008E48001F0068400206D42868800714D5C0
:10379000E068012823D110E0E068D0B10120C9F829
:1037A0000000FFF7F1F9074604E0FFF7EDF9C01B51
:1037B0006428B1D828688007F7D5286898FAA8F255
:1037C0002169B2FA82F220F0F800914008432860A3
:1037D0000EE0C9F80060FFF7D7F9074605E0EAE018
:1037E000FFF7D2F9C01B642812D828688007F7D4E5
:1037F0002078000725D5DFF8C4817348616908F196
:103800006C0881B101210160FFF7BEF9074605E0B0
:103810007EE0FFF7B9F9C01B642879D8D8F800001A
:103820008007F6D50DE00660FFF7AEF9074604E025
:10383000FFF7AAF9C01B64286AD8D8F800008007EF
:10384000F6D42078400753D55C483830016841F001
:10385000805101600068DFF8748100F080500090B2
:10386000D8F8001041F48071C8F80010FFF78CF907
:10387000074604E0FFF788F9C01B642848D8D8F849
:103880000000C005F6D5DFF834B10BF1680B8BF8FA
:103890000060FFF779F9074641F2883804E0FFF746
:1038A00073F9C11B41457ED8DBF800008007F6D4D0
:1038B000207A8BF80000A06868B1FFF765F9074629
:1038C00004E0FFF761F9C11B41456CD8DBF800004B
:1038D0008007F6D50CE0FFF757F9074604E0FFF73D
:1038E00053F9C11B41455ED8DBF800008007F6D4D0
:1038F000A069E8B3DAF80010C1F3810102295AD0B7
:10390000022806D0C9F86060FFF73EF904464DE092
:1039100049E04F46C9F86060FFF736F9064604E013
:10392000FFF732F9801B64283DD828688001F7D45E
:10393000D4E90701084347F6C07191FAA1F1626A20
:10394000B1FA81F18A40A16A4FF0FF3303EB5101D4
:103950004FF4403393FAA3F3B3FA83F399400A4345
:1039600010434FF0706292FAA2F2B2FA82F200E0D3
:103970001FE0E16A914008431049091F08600120D7
:103980003866FFF701F9044604E0FFF7FDF8001B75
:10399000642808D828688001F7D50AE0FFF7F4F812
:1039A000001B642802D90320BDE8F88F2868800135
:1039B000F4D40020F8E70120F6E7000008380240C0
:1039C0000038024000004742800E4742007000402D
:1039D00070B504001BD0022084F881002068002507
:1039E00005612168681E8861204605F03BFD20685E
:1039F000416841F008014160204600F0A1F8C4F898
:103A0000845084F8815084F88050002070BD0120DB
:103A100070BD704770B5040004D094F88100002593
:103A200010B106E0012070BD84F88050204600F0FF
:103A300089F8022084F88100204605F013FD204615
:103A400005F000FD206AA8B1204605F02DFD216A91
:103A500000EB800040004902B0FBF1F00A21B0FB0E
:103A6000F1F2B0FBF1F301FB13006262082801D907
:103A7000521C6262206801682F4A11400160616B2C
:103A800060680843D4E90E1211430843216C0843CF
:103A9000A1680843A16A0843216908436169084392
:103AA000A18C40EA0151E06A014320680268114399
:103AB0000160206841684CF20F0291434160206828
:103AC0004168A2691143D4E90B231A4311434160B1
:103AD00020688168194A11408160616DE06C626CF8
:103AE0000143206D521E10430143A06C6FF0FF0292
:103AF00002EB00200143206883681943816020683D
:103B0000C1684FF220031940C160D4E91610014387
:103B1000D4E9183002EB0322104301432068C26845
:103B20001143C160C4F88450012084F8810084F8F6
:103B30008050002070BD000010C005FF0080F8FF1D
:103B400070470000124800B5016887B041F4800159
:103B50000160006800F4800005900D481438016889
:103B600041F0100101600068694600F01000059006
:103B70007C200090022001900120029003200390FD
:103B8000062004900348FEF707FF07B000BD0000C1
:103B9000443802400010024070B50D46040003D0C6
:103BA00094F82C0010B107E0012070BD002084F8CB
:103BB0002D00204600F012F8022084F82C00211D70
:103BC0002068FDF717FBD4E900022946FDF762FBE8
:103BD000012084F82C00002070BD0000304800B5A2
:103BE000016887B041F001010160006800F0010048
:103BF00005902B480838016841F004010160016814
:103C000001F004010591016841F0080101600168BB
:103C100001F008010591016841F01001016001689F
:103C200001F010010591016841F020010160016877
:103C300001F020010591016841F040010160006838
:103C4000694600F0400005900D2000900220019090
:103C500001200290032003900C2004901148FEF7ED
:103C60009BFE4CF20370009069460F48FEF794FEED
:103C70004FF68370009069460C48FEF78DFE4FF6B4
:103C80003F00009069460A48FEF786FE48F237106A
:103C9000009069460748FEF77FFE07B000BD0000B0
:103CA0003838024000080240000C02400010024078
:103CB000001402400018024010B5044690F82C0091
:103CC000022809D0022084F82C002068FDF7B8FAF9
:103CD000012084F82C00002010BD70B5044690F837
:103CE0002C000D4602280CD0022084F82C002068FD
:103CF000FDF7ACFA2868022804D0012084F82C00D3
:103D0000002070BD0520F9E72DE9F04790F820204C
:103D100081F85620828CA1F85420826A0023120E6A
:103D200094090C70C2F383044C7002F003028A7091
:103D3000826A120CCA70028D120A0A7190F8282049
:103D40004A71C26A4FF6FF7A120E0AEA0212CA805C
:103D5000C26ACC88C2F3074244EA1214CC8002F053
:103D60000F020A72828DC2F30722D4094C72C2F389
:103D700080148C72C2F34014CC72C2F300140C7322
:103D800000264E73046A4FF00109002C7DD0012CEF
:103D9000FCD0022C7AD02923C2F380144C769206F0
:103DA000520E01F81A2F10F8302F0C7844EAD21472
:103DB00001F8014B02F07F0201F8012B50F8042FAB
:103DC000120ED4090C70C2F341144C70C2F3820479
:103DD0008C709207120FCA7004C8CC78C2F30742E5
:103DE00044EA9214CC70C2F340140C714E7102F08C
:103DF00001028A7130F8042CC2F30722D409CC7175
:103E0000C2F380140C72C2F340144C72C2F300145B
:103E10008C72C2F38104CC7202F003020A7310F8B0
:103E2000042C52084A734C4681F80E9050F8082B27
:103E3000120E0A7450F8082C120C0AEA02224A8266
:103E400030F8082C4D8AC2F3072215434D8210F832
:103E5000082C120641F8142F50F8042C0D68120E8D
:103E600045EA02420A6050F8042C0D68C2F307428A
:103E700045EA02220A6030F8042C0D68C2F30722DA
:103E8000154320C110F8042C01E034E076E001F87D
:103E9000012B0268120E01F8032B0268120C1206A5
:103EA0000A6002880D68C2F3072245EA02420A60EE
:103EB00002780D6845EA02220A6042680D6845EA08
:103EC000126520C142680D78C2F3074245EA121517
:103ED00001F8025B1207120D0A8082880D88C2F376
:103EE0000722154321F8025B0079400808704C70E6
:103EF0001846BDE8F0879207120D0A6190F82C2051
:103F00000C6944EA82020A61026B0C69120E44EAEF
:103F100092140C61C2F3C2040C7502F007024A75D8
:103F2000026BC2F3074254098C75C2F38204CC754C
:103F30009207520F0A76028E0C7EC2F3072244EAE1
:103F4000D2140C760C690F7EBF1C09FA07F5641CAD
:103F5000A4FB05784FEAE57C06FB058504FB0C55C0
:103F600091F808C009FA0CF4A7FB04C80C6505FB1E
:103F7000048407FB0644C1E912C40DE790F82C2025
:103F80009206920A0A61026B0C69120E44EA02223E
:103F90000A61026B0C69C2F3074214430C61028E82
:103FA0000C69C2F30722641C46F10005ED0445EAE2
:103FB0005435E404C1E912454FF400740C65EBE696
:103FC00070B586B000250E4604468DF80C50057776
:103FD00000F046F876200095CDE901502B462A46A0
:103FE0002946206805F0F2FA204605F029FE8DF8F2
:103FF0000C009DF80C0038B9204605F015FD8DF831
:104000000C009DF80C0018B19DF80C0006B070BDB6
:1040100031462046FFF778FE8DF80C009DF80C0025
:10402000A0B9B6F85400694600040090072001903A
:104030004020CDE9020500010490206805F0DFFA78
:104040000721204605F062FB8DF80C0004F11000FA
:1040500007C88DE8070094E80F0005F0B7FAD3E72A
:104060001D4800B5016887B041F400610160006837
:1040700000F40060059018481438016841F480018C
:104080000160016801F480010591016841F00401BB
:104090000160016801F004010591016841F0080127
:1040A00001600068694600F0080005904FF4F85080
:1040B00000900220019001200290032003900C2028
:1040C00004900648FEF768FC042000906946044806
:1040D000FEF762FC07B000BD443802400008024011
:1040E000000C02402DE9F04F8BB004460D46DDE98F
:1040F0001478216800201646C862216A022903D17B
:104100000F02560A46EAC3561021CDE9007140213C
:10411000834608010291CDE903B06946206805F0A5
:104120006EFA1021204605F0F1FA00286DD14FF00B
:10413000FF3A08FB07F0CDE905A007A990204FF052
:10414000020981E8010A01200A9005A9206805F00A
:104150001BFAB8F1010F01D9122000E01120CDE9BE
:1041600000606946206805F04AFAB8F1010F1AD9D3
:104170001221204605F0CAFA070046D140F22A3B38
:104180002068416B11EA0B0F28D1406B0004F7D572
:104190000026206805F030FA45F82600761C082E27
:1041A000F7D32035ECE71121204605F0AFFA0700E0
:1041B0002BD140F22A6B2068416B11EA0B0F0DD115
:1041C000406B0004F7D50026206805F015FA45F885
:1041D0002600761C082EF7D32035ECE7406BC0058F
:1041E0000CD5B8F1010F09D9206A18B1012801D006
:1041F000022803D1204600F033F807462168486BB7
:10420000000705D50820886304200BB0BDE8F08FB7
:10421000486B800703D54846C1F83890F5E7486BEE
:10422000800603D5202088630620EEE7486B8005D2
:1042300004D54FF4007088630720E6E7564603E094
:1042400005F0DAF901C5761E2068416B890201D5B7
:10425000002EF5D1216840F2FF5088633846D4E73C
:1042600010B586B0044600200C21CDE900014021A4
:10427000CDE90210080104906946206805F0BFF9F5
:104280000C21204605F042FA06B010BDFEB50446EA
:10429000006A00250E46032805D030B1012804D05D
:1042A000022802D01FE02720FEBDB6F5805F05D0B2
:1042B000B6F5006F04D03EB1262514E0272512E0A4
:1042C000204605F0F8FD02E0204605F0BBFD0500A4
:1042D00009D1211DD4E905070EC9CDE90060029777
:1042E000206805F073F92846FEBD2DE9F04F8DB02A
:1042F000064600250C468DF82C50DDE916983168ED
:1043000017462846CD62316A4FF4007B022903D15B
:10431000570AD94647EAC3571021CDE900914021F9
:10432000824608010291CDE903A06946306805F094
:1043300066F91021304605F0E9F900286ED1B8F190
:10434000010F01D9192000E01820CDE9007069465D
:10435000306805F054F9B8F1010F01D9192100E0D6
:104360001821304605F0D2F900287FD1411E09FB03
:1043700008F99020CDE906900591CDF820A0012004
:10438000CDE909A005A9306805F0FEF8B8F1010FE4
:1043900024D84FE0406B400420D5A9EB050020282D
:1043A00011D281074FEA900000D0401C82460027BE
:1043B00006E02146306805F032F9241D2D1D7F1CD2
:1043C00057450BD2F5E7002704EB8701306805F06D
:1043D00026F97F1C082FF7D3203420353068416B35
:1043E00040F21A321142D5D02AE0406B400421D568
:1043F000A9EB0500202812D281074FEA900000D0D7
:10440000401C8246002706E02146306805F007F987
:10441000241D2D1D7F1C57450CD2F5E726E00027F3
:1044200004EB8701306805F0FAF87F1C082FF7D3FA
:10443000203420353068416B40F21A621142D4D0EA
:10444000406BC0050BD5B8F1010F08D9306A18B11F
:10445000012801D0022802D13046FFF701FF316860
:10446000486B000705D50820886304200DB0BDE81F
:10447000F08F486B800702D502208863F6E7486B0F
:10448000C00603D5102088630520EFE7486B800540
:1044900003D5C1F838B00720E8E740F2FF50886341
:1044A0000BA9304605F02EFB0028DFD19DF82C101B
:1044B0000729F5D00629F3D0D8E770B5040004D059
:1044C00094F85100002510B106E0012070BD84F879
:1044D0005050204600F034F8022084F85100206843
:1044E000016821F040010160D4E901010843D4E9E9
:1044F00003121143084361690843218B01F40071E1
:104500000843E1690843216A0843A16A0843216816
:104510000860A069042101EA1040616A084321682B
:1045200048602168E06A08612068C16921F400617F
:10453000C1616565012084F85100002070BD000054
:10454000124800B5016887B041F0200101600068A1
:1045500000F0200005900D481430016841F48011EE
:1045600001600068012100F4801005904FF4607034
:1045700000900220CDE901010390052004906946D6
:104580000348FEF709FA07B000BD000030380240CA
:10459000001402402DE9F843044690F85100DDF87C
:1045A0002080012801D022287ED169B162B15BB19F
:1045B00094F85000012877D0012784F8507094F8BF
:1045C0005100012803D005E00120BDE8F883322026
:1045D00084F8510000266665A263A387E387216300
:1045E000A386E386A664E664A06A4FF40055A84259
:1045F00009D12068016821F4005101602068016838
:1046000041F40051016020680168490603D4016843
:1046100041F040010160E0684FF48271B0F5006F35
:10462000606807D0002867D088426ED1E08E0128EC
:1046300062D06AE020B188420CD1E08E012809D115
:10464000206B21680088C860206B801C2063E08E8E
:10465000401EE086E08E80B9A06AA84244D120685E
:10466000016841F4805101603EE02068C068A16BA0
:104670000880A06B801CA0639EE0434600220221BC
:10468000204605F0E3FC002874D1206B21680088E7
:10469000C860206B801C2063E08E401E0004000C6C
:1046A000E08609D1A06A00E0C7E0A84204D12068F2
:1046B000016841F4805101604346002201212046F7
:1046C00005F0C4FC00286FD12068C068A16B088089
:1046D000A06B801CA063E08F401EE087E08E002866
:1046E000CBD1606800286AD14346002201212046D0
:1046F00005F0ACFCF0BBB8E7206B411C21632168DE
:104700000078C860E08E401EE086E08E98B9A06A0E
:10471000A84204D12068016841F4805101604346F9
:1047200000220121204605F091FC18BB2068C068DA
:10473000A16B087040E0434600220221204605F0AC
:1047400085FCB8B9206B411C216321680078C860E2
:10475000E08E401E0004000CE08607D1A06AA8424B
:1047600004D12068016841F4805101600022434671
:10477000012100E018E0204605F068FCA0B920689F
:10478000C168A06B421CA2630170E08F401EE087ED
:10479000E08E0028CFD1606888B94346002201210D
:1047A000204605F053FC08B103200EE72068C168DD
:1047B000A06B421CA2630170E08F401EE087A06ADC
:1047C000A84210D1434600220121204605F03EFCBC
:1047D00018B1606D40F002000FE02068C068ADF8CD
:1047E0000000BDF80000434601228021204605F06C
:1047F0002DFC20B1606D40F020006065D4E784F8A6
:10480000517020688168A26AC1F30011AA4210D1D8
:1048100079B1616D41F002016165016821F40051D7
:1048200001602068016841F40051016084F8506023
:10483000CAE684F850600020C7E60220C5E670B5DD
:1048400015460E46040003D094F8490010B107E065
:10485000012070BD002084F84800204600F01AF8BE
:1048600004F108012068FCF75BFC3146A26820686F
:10487000FCF792FCD4E901022946236BFCF730FCDB
:10488000A168206850F8212042F0010240F8212060
:10489000002070BD1A4800B5016887B041F00101E1
:1048A0000160006800F001000590154808380168B3
:1048B00041F008010160016801F0080105910168FB
:1048C00041F0100101600068694600F01000059099
:1048D0004EF2B3700090022001900120029003205C
:1048E00003900C2004900748FEF756F84FF68070AE
:1048F000009069460448FEF74FF807B000BD00007D
:1049000038380240000C0240001002404FF0E02115
:104910000428086903D020F004000861704740F0C3
:104920000400FAE710B5401EB0F1807F01D30120EA
:1049300010BD4FF0E02460610F21601704F0F3FA1E
:104940000020A06107202061002010BD7047704743
:10495000704770B50446006801694FF00005C9430F
:10496000890715D4C168C943890711D4E91E0161BB
:1049700001202076206880698007204602D0FFF75A
:10498000E7FF04E000F098F8204600F096F825765E
:1049900020680169C943490717D4C168C943490759
:1049A00013D46FF004010161022020762068806931
:1049B00010F4407F204602D0FFF7CAFF04E000F069
:1049C0007BF8204600F079F8257620680169C94314
:1049D000090716D4C168C943090712D46FF008014A
:1049E0000161042020762068C0698007204602D03B
:1049F000FFF7AEFF04E000F05FF8204600F05DF83E
:104A0000257620680169C943C90617D4C168C9431E
:104A1000C90613D46FF010010161082020762068C8
:104A2000C06910F4407F204602D0FFF791FF04E0F8
:104A300000F042F8204600F040F825762068016931
:104A4000C943C90708D1C168C943C90704D1891E30
:104A50000161204600F032F820680169C943090667
:104A600009D4C168C943090605D46FF0800101610A
:104A70002046FFF76BFF20680169C943490609D446
:104A8000C168C943490605D46FF040010161204661
:104A900000F01AF820680169C94389060BD4C1687F
:104AA000C943890607D46FF0200101612046BDE8A3
:104AB0007040FFF74CBF70BD7047704701484168B8
:104AC00000200847540000207047704738B501683F
:104AD00004460868CA68C0F3000002F4807238B166
:104AE00032B1086848680090E06B40F00100E06374
:104AF00008684A69C0F3400002F0010238B132B1DF
:104B0000086848680090E06B40F00400E0630868C3
:104B10004A69C0F3800002F0010238B132B108687E
:104B200048680090E06B40F00200E06308684A6962
:104B3000C0F3C00002F0010238B132B10868486821
:104B40000090E06B40F00800E0630868C968C0F3BB
:104B5000401001F0200118B111B1204606F032FAE0
:104B600020680168C068C1F3C01100F0800019B16D
:104B700010B1204606F034FB21680868CA68C0F30B
:104B8000801002F04002012568B162B1CA68204677
:104B900022F04002CA6094F8391032290CD080F813
:104BA000395000F0EDF8E06B002804D084F839505B
:104BB0002046FFF78AFF38BD222180F83910F0E740
:104BC00070B5040004D094F83900002510B106E057
:104BD000012070BD84F83850204600F021F80220F2
:104BE00084F839002068C16821F40051C160204672
:104BF00006F03CFA2068016921F4904101612068C7
:104C0000416921F02A0141612068C16841F40051E5
:104C1000C160E563012084F83900002070BD000008
:104C200030B504460068204987B0884239D11F4812
:104C3000016841F001010160006800F00100059089
:104C40001A481430016841F0100101600068012128
:104C500000F0100005904FF4007000900220CDE9A4
:104C6000010103900720124D049069462846FDF784
:104C700093FE2815009069462846FDF78DFE2068B2
:104C8000C16821F04001C1602068C16841F0200185
:104C9000C1602520FEF7B4F9032211462520FEF756
:104CA000BBF907B030BD00000010014030380240B1
:104CB000000002402DE9F047044690F8390099467B
:104CC0000D46012801D0122857D125B31AB394F804
:104CD0003800012851D0012684F838600027E763A6
:104CE00094F83900122819D0222084F83900A285BE
:104CF000E2854FF48058E08D4B46401EE085A06869
:104D00004FF0000240454FF02001204616D106F03A
:104D10009AFAB0B904E00120BDE8F0873220E4E758
:104D2000206900282068406803D0C1B225F8011B23
:104D300012E0C0F3080125F8021B0DE006F083FA2B
:104D400008B10320E8E7206900282068406801D006
:104D500000F07F0005F8010BE08D0028CBD194F81E
:104D60003900322805D084F8396084F83870002082
:104D7000D2E7122084F83900F7E70220CCE7704729
:104D80007047FEE770B50D4C0025C4F890520C48F2
:104D9000016821F440610160016841F480610160B3
:104DA000C4F89452022004F5247407F013FC012087
:104DB0002060022007F00EFC256070BD0080434299
:104DC000001C02400E4810B5016886B041F0800119
:104DD00001600068012400F0800005903020CDE9DA
:104DE00000040220CDE9024069460648FDF7D4FDE3
:104DF0000548C0F89442C0F8904206B010BD0000CB
:104E000030380240001C02400080434270B50D4C17
:104E10000026C4F890620C48016821F440610160EA
:104E2000016841F4806101600125C4F894520220B8
:104E300004F5247407F0CEFB2560022007F0CAFBBE
:104E4000266070BD00804342001C02402DE9F047FF
:104E5000814616480024016821F440610160016820
:104E60000160134E254627464FF00108C6F89072A0
:104E7000022007F0AFFBC6F890826006040ED6F859
:104E8000140208B1641CE4B2012007F0A3FB6D1CFE
:104E9000EDB2082DEAD3B9F1000F04D0FFF772FF8D
:104EA0002046BDE8F087FFF7B1FFF9E7001C02409C
:104EB000008043422DE9F04105461448016821F481
:104EC00040610160016841F480610160104E00277B
:104ED000C6F890723C464FF00108E809C6F8940203
:104EE0006806050E022007F075FBC6F890820220C6
:104EF00007F070FBC6F89072022007F06BFB641C91
:104F0000E4B2082CE9D3BDE8F0810000001C0240A7
:104F10000080434270B50D48016821F44061016092
:104F2000016841F480610160094C0120C4F89402D9
:104F3000C4F89002042004F5247407F04BFB00250C
:104F40006560042007F046FB256070BD001C024030
:104F50000080434270B50D48016821F44061016052
:104F6000016841F480610160094C0020C4F890029E
:104F7000C4F89402042004F5247407F02BFB0125E7
:104F80002560042007F026FB656070BD001C024010
:104F90000080434270B512480024016821F440614A
:104FA0000160016801600F4D0126C5F8946230462A
:104FB00007F010FBC5F89062012007F00BFB07E03B
:104FC000641CE4B2FA2C03D9FFF7C4FF012070BDC2
:104FD000D5F814020028F3D1C5F8900270BD000086
:104FE000001C02400080434270B51B4886B000257B
:104FF000016841F001010160016801F001010591C2
:10500000016841F004010160016801F004010591AB
:10501000016841F0800101600068032400F0800015
:10502000059002200126CDE90204CDE9006569461C
:105030000A48FDF7B1FC700303948DE861006946EE
:105040000748FDF7A9FC0C20009069460548FDF7CC
:10505000A3FC06B070BD00003038024000000240E2
:1050600000080240001C024070B50E490E4A064678
:1050700008881268002422B13046BDE8704002F072
:1050800001BF4D8800214543084602F055FD02F05E
:10509000C1FEB1B2054801E00180641CAC42FBD303
:1050A00070BD0000BC020020A803002000000860C2
:1050B0002DE9F84F814617480A9F0E46006828B12F
:1050C0004846009702F0FEFEBDE8F88FA2EB09000B
:1050D000401C85B2981B401C1FFA80F80024DFF8A2
:1050E00038A014E0301981B2484602F025FD02F0E4
:1050F00091FE0020514606E004FB050237F812201D
:105100000A80401C80B2A842F6D3641CA4B2444575
:10511000E8D3D9E7A8030020000008602DE9F05F7C
:10512000394C3A4DA071296839B102F02BFFE88A59
:105130002080288B6080BDE8F09F33492C232A25EE
:1051400089884FF0F00949F2413A2B2645F2105B6D
:105150004FF4305E4FF448774FF4A07845F2103C9E
:105160004FF4F07258B1A4F80080A4F802905145B1
:1051700001D0614529D123816581A68139E0A4F858
:105180000090A4F80280514501D0614508D12381E7
:105190006581A681614531D1A4F8008062802DE04F
:1051A000594508D1A4F808E04FF4285060814FF425
:1051B0002C50A08106E0A1F5C85063381ED1238190
:1051C0006681A5812280678018E0594508D1A4F83E
:1051D00008E04FF4285060814FF42C50A08106E085
:1051E000A1F5C850633804D123816581A681278049
:1051F0006280614502D12280A4F80280BDE8F05FA0
:10520000002002F0BDBB0000BC020020A80300206B
:105210002DE9FE4F0026A2EB000882465F1A701EA1
:1052200035468946B8F1000F02DD4FF0010102E07A
:1052300003D14FF00001019102E0C8F10008019094
:10524000002F02DD4FF0010002E003D14FF000001B
:10525000009002E0C7F1000700904046B84501DD2C
:10526000044600E03C46601C4FF0000B029015E045
:105270001FFA89F11FFA8AF000F016F846443D44FF
:10528000A64202DD0199361B8A44A54202DD00993F
:105290002D1B89440BF101001FFA80FB02998B45FD
:1052A000E6DDBDE8FE8F000010B5084A084C126824
:1052B00022B12268BDE8104002F078BE02F03CFC4A
:1052C00002F0A8FD03492088088010BDA803002033
:1052D0002C000020000008602DE9FC5F80460024BF
:1052E000154603200F46A0EB450649E0781B81B226
:1052F00008EB040A01901FFA8AF0FFF7D5FF381B6C
:1053000081B208EB050900901FFA89F0FFF7CCFF86
:1053100007EB040B1FFA8BF11FFA89F0FFF7C4FFAC
:1053200007EB05091FFA89F11FFA8AF0FFF7BCFFA6
:10533000A8EB040A1FFA89F11FFA8AF0FFF7B4FFFD
:10534000A8EB05091FFA8BF11FFA89F0FFF7ACFFF4
:10535000019881B21FFA8AF0FFF7A6FF009881B288
:105360001FFA89F0FFF7A0FF641C002E03DA06EB9A
:105370008406B61D04E0601B06EB80066D1E0A362F
:10538000AC42B3DDBDE8FC9F2DE9F04104463A484C
:105390000D46006820B12046BDE8F04102F006BE8F
:1053A000364E270A3146B0884989A0F513434FEAA3
:1053B0001528413B0CD0A0F5A643103B08D0A0F522
:1053C000AA43103B11D0A0F5C853633B27D04BE054
:1053D000084602F013FD384602F004FDE0B202F088
:1053E00001FDB08902F00AFD38E0084602F006FD32
:1053F000384602F0F7FC7089401C80B202F0FEFCD7
:10540000E0B202F0EFFCB08902F0F8FC404602F096
:10541000E9FCB089401C80B202F0F0FC21E0B079D8
:1054200018B93088001B401E84B2084602F0E6FC22
:10543000270A384602F0D6FCE0B202F0D3FC384628
:1054400002F0D0FCE0B202F0CDFCB08902F0D6FC54
:10545000404602F0C7FCE8B202F0C4FC404602F04D
:10546000C1FCE8B202F0BEFC054930890880881C06
:105470000280BDE8F0810000A8030020BC020020EB
:10548000FEFF07602DE9F8431F46144B804608983D
:105490001B6833B100903B46404602F0A5FDBDE8D5
:1054A000F883A2EB0802521C96B20C4685B2DFF8D4
:1054B00030900FE02146404602F03EFB02F0AAFC8D
:1054C0000020494602E00D80401C80B2B042FAD371
:1054D000641CA4B2BC42EDD9E1E70000A80300209F
:1054E000000008602DE9F04F95B002F01BFFFE4D63
:1054F0004FF0010AA5F15009A88049F2413B45F25D
:10550000103645F2105441F6631818B102F0C6FD8A
:1055100002F08BB9F5480027016841F002010160F3
:10552000006810A900F0020000902020CDE9100AC8
:105530000320CDE912A0EE48FDF72EFA4FF02041EE
:105540004846C9F80010EB49C0E901171021C9F815
:105550000C70C0E90471C9F818700902C9F81C7010
:10556000C0E909718900C0E90B71C9F8347089017B
:10557000C9E90E7146210B910F20CDE90907CDE94C
:1055800002070490D8480F9702AA09A90897503833
:10559000FFF755F9322007F00FF8D32002F02EFC68
:1055A00002F06EF9A88002F06BF9A88002F068F9A9
:1055B0004FF6FF7202EA0020A88002F061F9A98884
:1055C0005F460843A880B84248D0D42002F016FCB9
:1055D00002F056F9A88002F053F9A88002F050F9C1
:1055E00002EA0020A88002F04BF9A9880843A880AD
:1055F000B04233D04FF45A4002F000FC02F040F9C0
:10560000A8804FF45B4002F0F9FB02F039F902EA9E
:105610000020A8804FF45C4002F0F0FB02F030F96B
:10562000A9880843A880B0F5004F7DD0A04215D0CE
:10563000A12002F0E3FB02F023F9A88002F020F998
:1056400002EA0020A88002F01BF9A9880843A0F50F
:10565000AE41A880613901D1A5F80480A988A6A02F
:10566000FAF7BEFEA888B8427ED1CF2002F0C6FB72
:10567000002002F0B7FBC12002F0B4FB302002F0A2
:10568000B1FBED2002F0BAFB642002F0ABFB03207B
:1056900002F0A8FB122002F0A5FB812002F0A2FB81
:1056A000E82002F0ABFB852002F09CFB102002F00A
:1056B00099FB7A2002F096FBCB2002F09FFB392069
:1056C00002F090FB2C2002F08DFB002002F08AFB00
:1056D000342002F087FB022002F084FBF72002F066
:1056E0008DFB202002F07EFBEA2002F087FB0020E9
:1056F00002F078FB002002F075FBC02002F07EFB78
:105700001B2002F06FFBC12002F078FB012002F0A9
:1057100069FBC52002F072FB302002F063FB3020F1
:1057200002F060FBC72000E0B7E002F067FBB720A3
:1057300002F058FB362002F061FB482002F052FBD9
:105740003A2002F05BFB552002F04CFBB12002F046
:1057500055FB002002F046FB1A2002F043FBB62066
:1057600002F04CFB0A2000E099E002F03BFBA22093
:1057700002F038FBF22002F041FB002002F032FB85
:10578000262002F03BFB012002F02CFBE02002F07F
:1057900035FB0F2002F026FB2A2002F023FB2820F5
:1057A00002F020FB082002F01DFB0E2002F01AFB85
:1057B000082002F017FB542002F014FBA92002F08D
:1057C00011FB432002F00EFB0A2002F00BFB0F201E
:1057D00002F008FB002002F005FB002002F002FBB3
:1057E000002002F0FFFA002002F0FCFAE12002F0B3
:1057F00005FB002002F0F6FA152002F0F3FA17205C
:1058000002F0F0FA072002F0EDFA112002F0EAFAB5
:10581000062002F0E7FA2B2002F0E4FA562002F00C
:10582000E1FA3C2002F0DEFA052002F0DBFA10205B
:1058300002F0D8FA0F2002F0D5FA3F2002F0D2FA97
:105840003F2002F0CFFA0F2002F0CCFA2B2002F01A
:10585000D5FA002002F0C6FA002002F0C3FA0120B7
:1058600002F0C0FA3F2002F0BDFA2A2002F0C6FA88
:10587000002002F0B7FA002002F0B4FA002002F093
:10588000B1FAEF2002F0AEFA112002F0B7FA782058
:1058900006F092FE292001F00BBFAC80DEE6B0429C
:1058A0007ED1ED2002F0AAFA012002F09BFAFE2040
:1058B00002F098FAEE2002F0A1FADE2002F092FA4D
:1058C000212002F08FFAF12002F098FA012002F074
:1058D00089FADF2002F092FA102002F083FAC42045
:1058E00002F08CFA8F200FE0BC020020303802401A
:1058F00000040240040100A0204C43442049443AE3
:1059000025780D0A0000000002F06CFAC62002F0B3
:1059100075FA002002F066FAE22002F063FAE22053
:1059200002F060FAE22002F05DFABF2002F066FAAF
:10593000AA2002F057FAB02002F060FA0D2002F01F
:1059400051FA002002F04EFA0D2002F04BFA00202E
:1059500002F048FA112002F045FA002002F042FA63
:10596000192002F03FFA002002F03CFA212002F058
:1059700039FA002002F036FA2D2002F033FA002026
:1059800002F030FA3D2002F02DFA002002F02AFA4F
:105990005D2002F027FA002002F024FA5D2000E0EA
:1059A000FEE302F01FFA002002F01CFAB12002F020
:1059B00025FA802002F016FA002002F013FA8B205C
:1059C00002F010FA002002F00DFA962002F00AFA16
:1059D000002002F007FAB22002F010FA002002F0D4
:1059E00001FA002002F0FEF9022002F0FBF900208B
:1059F00002F0F8F9032002F0F5F9002002F0F2F9C4
:105A0000B32002F0FBF9002002F0ECF9002002F0D4
:105A1000E9F9002002F0E6F9002002F0E3F90020A5
:105A200002F0E0F9002002F0DDF9002002F0DAF9DE
:105A3000002002F0D7F9002002F0D4F9002002F093
:105A4000D1F9002002F0CEF9002002F0CBF90020BD
:105A500002F0C8F9002002F0C5F9002002F0C2F9F6
:105A6000002002F0BFF9002002F0BCF9002002F093
:105A7000B9F9002002F0B6F9002002F0B3F90020D5
:105A800002F0B0F9002002F0ADF9002002F0AAF90E
:105A9000002002F0A7F9B42002F0B0F98B2002F048
:105AA000A1F9002002F09EF9962002F09BF9002057
:105AB00002F098F9A12002F095F9002002F092F985
:105AC000B52002F09BF9022002F08CF9002002F0D0
:105AD00089F9032002F086F9002002F083F90420FE
